S01000006C617370657A69612E73726563BB
S11300000C9459100C947A100C947A100C947A1065
S11300100C94CD4A0C947A100C947A100C947A10A7
S11300200C947A100C947A100C947A100C94FC5F53
S11300300C947A100C9476670C943A600C94676074
S11300400C9494600C94C1600C94EE600C941B614D
S11300500C9448610C9475610C94A2610C94CF616A
S11300600C947A100C94CF490C947A100C947A1056
S11300700C947A100C947A100C947A100C947A10D4
S11300800C947A100C947A100C947A100C947A10C4
S11300900C947A100C947A100C947A100C94BC572B
S11300A00C94EE570C9420580C9452580C947A10DB
S11300B00C947A100C947A100C949D670C94BE6383
S11300C00C94EB630C9418640C9445640C94726463
S11300D00C949F640C94CC640C94F9640C94266581
S11300E00C9453650C947A100C9429550C947A1042
S11300F00C947A100C947A100C947A100C947A1054
S11301000C948C4B0C947A100C947A100C947A10F6
S11301100C947A100C947A100C947A100C94F45673
S11301200C9426570C9458570C948A570C947A10B4
S11301300C947A100C94FC610C9429620C94566211
S11301400C9483620C94B0620C94DD620C940A6388
S11301500C9437630C9464630C9491630C947A103C
S11301600C947A100C947A100C947A100C947A10E3
S11301700C947A100C947A100C947A100C947A10D3
S11301800C947A100C947A100C947A100C947A10C3
S11301900C947A100C947A100C947A100C947A10B3
S11301A00C947A100C947A100C947A100C947A10A3
S11301B00C9480650C94AD650C94DA650C94076618
S11301C00C9434660C9461660C947A100C947A1036
S11301D00C947A100C947A100C947A100C947A1073
S11301E00C947A100C947A100C947A100C947A1063
S11301F00C947A100C94AD6E0C946B6F506F776501
S113020072204F6E0D0A004D435520526576697376
S1130210696F6E203A2000456E61626C696E6720DA
S11302206F7363696C61746F7220666F72204446E9
S11302304C4C0D0A006F7363696C61746F72206FAC
S11302406B0D0A000D0A73697A656F6628766F690B
S113025064202A29203D20000D0A73697A656F669F
S113026028666C6173685F616464725F7429203D01
S113027020000D0A436F6D70696C65642061732002
S113028044454255472C2073746172742074686528
S11302902047505253205541525420696E206D61BD
S11302A0696E0D0A0056426174203D2025750D0AC1
S11302B0726563494420256C750D0A0028646174D5
S11302C0616C6F676765725F736E617073686F747A
S11302D05F646174612920536E617073686F742068
S11302E06D656D6F72792069732066756C6C20730F
S11302F06F6D657468696E672077726F6E672069C9
S1130300732068617070656E696E670D0A00094E2E
S11303106F7468696E67206C65667420746F2073EF
S1130320656E642C20717569742074686520707220
S11303306F6365647572650D0A00265449443D2552
S11303406C750009426567696E206F66206D656D86
S11303506F727920726561636865640D0A000972C1
S113036065636F72642000095265636F7264207460
S1130370696D657374616D7020256C750D0A0009D3
S11303804D696E696D756D20646174652072656177
S1130390636865640D0A0009666C61672073656EA5
S11303A074206973207365742C20736B69700D0A53
S11303B0002354494D453D256C7526423D2575263F
S11303C0545F4F333D2564264F33773D2575264FC3
S11303D033613D257526543D257526504D31305FDA
S11303E0733D257526504D31303D25640026562534
S11303F0753D257500094854545020726561642088
S1130400676F74203A2000097265717565737469A9
S11304106E6720616E6F74686572206974657261BD
S113042074696F6E0D0A002F434D445F43484B3F80
S113043041575349443D00264150495F5645523D7A
S113044031004F4B0009676F74204F4B0D0A004772
S113045045545F42595F444154455F52414E4745BC
S11304603A00094745545F42595F444154455F523D
S1130470414E474520706172616D657465727320E9
S11304800064744265673A256C75096474456E644A
S11304903A256C750D0A004B4F00095B5741524ECB
S11304A0494E475D20536572766572207265747596
S11304B0726E65642061204B4F206D6573736167B4
S11304C0650D0A00095B5741524E494E475D205362
S11304D065727665722072657475726E65642061EA
S11304E06E20756E6B6E6F776E2073746174656DBC
S11304F0656E740D0A00444C5F434D445F47455498
S11305005F42595F444154455F52414E4745004460
S11305104C5F5345415243485F5245434F52445FF9
S113052042595F44415445004552524F5220286479
S11305306C5F7365617263685F7265636F72645F39
S113054062795F646174652920706172616D65749C
S11305506572207049746572206973204E554C4C45
S11305600D0A0028646C5F7365617263685F72656D
S1130570636F72645F62795F6461746529204461AA
S113058074616C6F6767657220697320656D707440
S1130590792E204E6F7468696E6720746F207365BE
S11305A0617263680D0A0028646C5F73656172632D
S11305B0685F7265636F72645F62795F64617465BA
S11305C029204154323443585820696E6974207785
S11305D0656E742077726F6E672C2061626F72741F
S11305E0696E672070726F6365647572650D0A00C9
S11305F05365617263682063616C6C65642077691C
S113060074682064743D256C7520666F756E642073
S1130610256C750D0A00476F696E672066726F6DF1
S1130620206261636B7761726420746F20666F72FD
S1130630776172640D0A00476F696E672066726F96
S11306406D20666F727761726420746F20626163DB
S11306506B776172640D0A00476F696E672062618F
S1130660636B77617264202D204E6F206D6174631B
S11306706820666F756E640D0A00476F696E6720A7
S1130680666F7277617264202D204E6F206D6174E5
S1130690636820666F756E640D0A00095265636FA6
S11306A0726420666F756E6420000D0A09526563DA
S11306B06F7264202064743D256C750D0A002864F3
S11306C06C5F6974657261746F725F6D6F76656675
S11306D06F727761726429206974657261746F72D4
S11306E020777261707320646174616C6F676765F1
S11306F0720D0A0028646C5F6974657261746F72AC
S11307005F6D6F76656261636B29206974657261E0
S1130710746F7220777261707320646174616C6F9E
S1130720676765720D0A0028646C5F69746572619D
S1130730746F725F6D6F7665666F72776172645FF6
S1130740776974685F636170292069746572617484
S11307506F72207265616368656420746865204502
S11307604E4420706F736974696F6E0D0A002864BB
S11307706C5F6974657261746F725F6D6F766566C4
S11307806F72776172645F776974685F63617029FF
S1130790206974657261746F72207772617073205E
S11307A0646174616C6F676765720D0A0028646C1C
S11307B05F6974657261746F725F6D6F7665626193
S11307C0636B5F776974685F63617029206974651E
S11307D07261746F72207265616368656420746805
S11307E06520535441525420706F736974696F6E5D
S11307F00D0A0028646C5F6974657261746F725FBE
S11308006D6F76656261636B5F776974685F63615E
S11308107029206974657261746F722077726170D7
S11308207320646174616C6F676765720D0A0044BC
S11308304C5F5441534B5F53454E445F44415441D4
S11308405F505245504152455F52540028626566DC
S11308506F72655F73656E645F636865636B29209F
S1130860446174616C6F6767657220697320656D9C
S11308707074792E204E6F7468696E6720746F20CF
S113088073656E640D0A00286265666F72655F7336
S1130890656E645F636865636B29205468652047EF
S11308A050525320737461747573206973206E6F92
S11308B074204F4B2074686973207461736B2077C4
S11308C0696C6C20656E6420686572650D0A002889
S11308D06265666F72655F73656E645F63686563A6
S11308E06B29204154323443585820696E6974206E
S11308F077656E742077726F6E672C2061626F72F9
S113090074696E672070726F6365647572650D0A31
S113091000444C5F5441534B5F53594E435F544919
S11309204D450028646174616C6F676765725F731D
S1130930796E635F74696D6529207468652047501A
S113094052532073746174757320666C61672069F7
S113095073206E6F74204F4B2C207468697320745D
S113096061736B2077696C6C2066696E69736820AB
S1130970686572650D0A0028444C5F73796E637470
S1130980696D652920736572766963652072657483
S113099075726E65643A2000253032642F2530323A
S11309A0642F256420253032643A253032643A2598
S11309B03032640D0A0028444C5F73796E637469A5
S11309C06D6529204E657720646174652069733AEA
S11309D02000646174616C6F6767657220696E6979
S11309E0740D0A000D0A0D0A5B4552524F525D20E8
S11309F0436F6E66696775726174696F6E2069739F
S1130A00206D697373696E672C20636865636B205E
S1130A1074686520696E7465726E616C20656570BA
S1130A20726F6D20696D6167650D0A00444C5F54F7
S1130A3041534B5F53544F52455F44543A20256C05
S1130A40750D0A00444C5F5441534B5F53454E446B
S1130A505F44543A20256C750D0A00444C5F5441A0
S1130A60534B5F53594E435F44543A20256C750DE4
S1130A700A00444C5F54494D455F44543A20256C68
S1130A80750D0A0028646174616C6F676765725F35
S1130A90696E69742920656570726F6D206974656B
S1130AA07261746F727320617265203A0D0A0028B6
S1130AB0646174616C6F676765725F696E697429DC
S1130AC020726573657474696E67206974657261F8
S1130AD0746F72730D0A0054434330207265736F50
S1130AE06C7574696F6E203D20256C750D0A0028A5
S1130AF0646174616C6F676765725F696E6974299C
S1130B0020726573657474696E6720656570726FB1
S1130B106D0D0A005772697465204661696C6564DD
S1130B203A204552525F494F5F4552524F520D0A87
S1130B30005772697465204661696C65643A2045A2
S1130B4052525F464C55534845440D0A005772694A
S1130B507465204661696C65643A204552525F545D
S1130B60494D454F55540D0A005772697465204626
S1130B7061696C65643A204552525F4241445F4466
S1130B804154410D0A005772697465204661696CCD
S1130B9065643A204552525F50524F544F434F4C74
S1130BA00D0A005772697465204661696C65643A80
S1130BB0204552525F554E535550504F5254454460
S1130BC05F4445560D0A0057726974652046616991
S1130BD06C65643A204552525F4E4F5F4D454D4F10
S1130BE052590D0A005772697465204661696C6533
S1130BF0643A204552525F494E56414C49445F4144
S1130C0052470D0A005772697465204661696C6524
S1130C10643A204552525F4241445F414444524544
S1130C2053530D0A005772697465204661696C65F7
S1130C30643A204552525F425553590D0A00577287
S1130C40697465204661696C65643A204552525F57
S1130C504241445F464F524D41540D0A0057726958
S1130C607465204661696C65643A20554E4B4F4E5D
S1130C70574E204552524F520D0A005245414420CE
S1130C804661696C65643A204552525F494F5F453D
S1130C9052524F520D0A0052454144202046616988
S1130CA06C65643A204552525F464C55534845445E
S1130CB00D0A005245414420204661696C65643A3E
S1130CC0204552525F54494D454F55540D0A005228
S1130CD045414420204661696C65643A204552527E
S1130CE05F4241445F444154410D0A00524541442E
S1130CF020204661696C65643A204552525F505227
S1130D004F544F434F4C0D0A005245414420204656
S1130D1061696C65643A204552525F554E53555093
S1130D20504F525445445F4445560D0A00524541C4
S1130D304420204661696C65643A204552525F4EF6
S1130D404F5F4D454D4F52590D0A005245414420C5
S1130D50204661696C65643A204552525F494E569B
S1130D60414C49445F4152470D0A005245414420D9
S1130D70204661696C65643A204552525F424144A1
S1130D805F414444524553530D0A005245414420A7
S1130D90204661696C65643A204552525F4255535E
S1130DA0590D0A005245414420204661696C65642E
S1130DB03A204552525F4241445F464F524D41549E
S1130DC00D0A005245414420204661696C65643A2D
S1130DD020554E4B4F4E574E204552524F520D0AFE
S1130DE000402000203A2000203A20000D0A00FF95
S1130DF0FFFFFFFFFFFFFF00005B4556454E545DBC
S1130E0020555342206F66660D0A005B4556454ED9
S1130E10545D20555342206F6E0D0A004144433AFD
S1130E202025640D0A004144433A20256409676182
S1130E30696E3A202564096F66667365743A257590
S1130E400D0A0074656D70657261747572653A207F
S1130E5025640D0A002873696D3930305F706F772F
S1130E6065725F6F666629206D6F64756C652069B5
S1130E7073204F4E20736F20706F776572206379F3
S1130E80636C696E670D0A002873696D3930305FD1
S1130E90706F7765725F6F666629206D6F64756C1D
S1130EA06520697320616C7265616479204F4646E0
S1130EB00D0A0053494D3930305F494E49540028DA
S1130EC073696D3930305F696E69742920636F64AA
S1130ED06520636F6D70696C656420776974682040
S1130EE0696E746572727570742075736172740DB5
S1130EF00A0041540D0A004F4B002853494D393024
S1130F00305F696E69742920747279696E67207420
S1130F106F2073657420612073657269616C206C45
S1130F20696E652073706565640D0A002853494D28
S1130F303930305F696E697429204E6F74206265A0
S1130F40696E672061626C6520746F20636F6E6EDA
S1130F5065637420746F2053494D3930302E20540A
S1130F60727920746F20706F776572206974206FB6
S1130F706E20616761696E0D0A002853494D39304E
S1130F80305F696E697429206661696C65642074D8
S1130F906F2073796E6368726F6E697A6520776902
S1130FA07468204750525320554152542E2054689F
S1130FB0652070726F636573732077696C6C20654C
S1130FC06E6420686572650D0A00415445300D0A4F
S1130FD0002853494D3930305F696E697429207493
S1130FE06869732073696D39303020646F65736E7E
S1130FF0277420737570706F727420415445300DDE
S11310000A002853494D3930305F696E69742920CC
S1131010636F72726563746C792069737375656448
S113102020415445300D0A0041542B435245473D5D
S1131030300D0A002853494D3930305F696E6974A8
S11310402920746869732073696D39303020646FA6
S113105065736E277420737570706F7274204154B9
S11310602B435245470D0A002853494D3930305F10
S1131070696E69742920636F72726563746C792078
S11310806973737565642041542B435245473D3061
S11310900D0A0041542B47534E3D3F0D0A0028537F
S11310A0494D3930305F696E6974292074686973F9
S11310B02073696D39303020646F65736E27742036
S11310C0737570706F72742041542B47534E0D0A20
S11310D00041542B47534E0D0A00494D45492063A6
S11310E06F6465206973203A20002853494D3930D4
S11310F0305F696E6974292041542B47534E206D2B
S113110065737365642075700D0A002853494D3961
S113111030305F696E6974292041542B47534E2047
S1131120474F54204F4B0D0A0041542B4350494E16
S11311303D3F0D0A002853494D3930305F696E69CF
S113114074292053494D206973206E6F7420707286
S11311506573656E740D0A0041542B4350494E3F2C
S11311600D0A00F70EE51FEB1F75116612F11FFC47
S11311701F0720102053494D2050494E0028534941
S11311804D3930305F696E6974292053494D2070A0
S1131190726573656E7420616E64206973205049B2
S11311A04E206C6F636B65640D0A002853494D39FA
S11311B030305F696E6974292050494E20636F6432
S11311C065206973206E6F742070726573656E7428
S11311D020696E206D656D6F72792053494D2077BB
S11311E0696C6C2072656D61696E206C6F636B65F0
S11311F0640D0A002853494D3930305F696E6974B3
S1131200292050494E20636F6465206973207072F1
S11312106573656E7420696E206D656D6F727920DB
S1131220747279696E6720746F20756E6C6F636B6E
S11312300D0A50494E3A200041542B4350494E3D2B
S1131240002873696D3930305F696E6974292057DD
S113125041524E494E472050494E206973205752FF
S11312604F4E470D0A0053494D2050554B0028530B
S1131270494D3930305F696E6974292053494D20D6
S113128070726573656E7420616E6420697320509A
S1131290554B206C6F636B65640D0A002853494DF0
S11312A03930305F696E697429206E6F2050554B58
S11312B020636F64652C2053494D20696E69742046
S11312C077696C6C206661696C20686572650D0ACB
S11312D00041542B435245473F0D0A002B435245CE
S11312E0473A20312C31002853494D3930305F6959
S11312F06E69742920646576696365206973206E5C
S11313006F7420616E73776572696E6720617320F4
S113131069742073686F756C64207265737461728C
S113132074696E672069740D0A002853494D393079
S1131330305F696E6974292064657669636520632A
S11313406F72726563746C79207265676973746512
S113135072656420696E20746865206E6574776FA9
S1131360726B0D0A002853494D3930305F696E693C
S113137074292064657669636520616E737765728C
S113138065642000207365656D73206E6F74207230
S113139065676973746572656420696E2074686535
S11313A0206E6574776F726B0D0A002853494D39AE
S11313B030305F696E6974292077696C6C206368CA
S11313C065636B20616761696E20696E20352073E7
S11313D065636F6E640D0A002873696D3930305F80
S11313E0636D645F776974685F726561645F737469
S11313F072696E672920676F742074696D656F74F4
S11314002072657472696E670D0A002873696D39FC
S113141030305F636D645F776974685F72656164BF
S11314205F737472696E6729206661696C65640D07
S11314300A002873696D3930305F776169743464E8
S1131440696374696F6E617279292074696D656F5F
S113145075742077616974696E6720666F72207392
S1131460696D39303020726573706F6E73650D0A63
S11314702873696D3930305F7761697434646963E6
S113148074696F6E61727929204F55540D0A0028D2
S113149073696D3930305F776169745F6461746159
S11314A05F6F6E5F7573617274292074696D656412
S11314B02D6F75740D0A00F70EE51F2873696D39D9
S11314C030305F726561645F737472696E6729207E
S11314D0676F742074696D656F75742077616974C2
S11314E0696E6720666F7220612063686172616350
S11314F07465720D0A002873696D3930305F726546
S113150061645F737472696E672920676F742074F5
S1131510696D656F75742077616974696E6720669B
S11315206F722061206368617261637465720D0A71
S1131530002873696D3930305F726561645F73745C
S113154072696E67292050726F76696465642062DF
S11315507566666572206973206E6F7420626967B0
S113156020656E6F7567682E2044697363617264C9
S1131570696E672063686172730D0A002873696D70
S11315803930305F776169745F737472696E67298B
S11315902074696D656F75742077616974696E670D
S11315A020666F722073696D3930302072657370F4
S11315B06F6E73650D0A2873696D3930305F77611A
S11315C069745F737472696E6729204F55540D0AEC
S11315D0002873696D3930305F475052535F736927
S11315E06D706C655F6F70656E29205573696E67E9
S11315F02041504E200053494D3930305F475052FE
S1131600535F494E49540041542B53415042523D7B
S1131610322C310D0A002873696D3930305F6770E0
S113162072735F696E697429207468652053415030
S113163042522023312071756572792077656E746A
S11316402077726F6E6720666F7220736F6D6520EE
S1131650726561736F6E2C2070726F63656475724E
S1131660652061626F727465640D0A002873696D88
S11316703930305F677072735F696E6974292062F4
S11316806561726572206973203A20002873696D60
S11316903930305F677072735F696E6974292074C2
S11316A0686520534150425220233220717565727F
S11316B0792077656E742077726F6E6720666F721B
S11316C020736F6D6520726561736F6E2C2070726C
S11316D06F6365647572652061626F727465640D11
S11316E00A002B53415042523A20312C332C2230E1
S11316F02E302E302E3022002873696D3930305F41
S1131700677072735F696E697429207468652072EA
S113171065717565737465642062656172657220B4
S1131720697320696E20636C6F73696E67207374CC
S11317306174757320285741524E494E47290D0A4A
S1131740002873696D3930305F677072735F696E3A
S11317506974292074686520726571756573746590
S1131760642062656172657220697320616C7265C0
S1131770616479206F70656E285741524E494E4717
S1131780290D0A0041542B53415042523D332C3110
S11317902C22436F6E74797065222C224750525369
S11317A0220D0A002873696D3930305F67707273D7
S11317B05F696E69742920746865205341504252F0
S11317C03D332C312C22436F6E74797065222C22A8
S11317D047505253222071756572792077656E7473
S11317E02077726F6E6720666F7220736F6D65204D
S11317F0726561736F6E2C2070726F6365647572AD
S1131800652061626F727465640D0A0041542B5344
S1131810415042523D332C312C2241504E222C2235
S113182000220D0A002873696D3930305F677072C9
S1131830735F696E6974292074686520534150424E
S1131840523D332C312C2241504E22207175657249
S1131850792077656E742077726F6E6720666F7279
S113186020736F6D6520726561736F6E2C207072CA
S11318706F6365647572652061626F727465640D6F
S11318800A0041542B53415042523D312C310D0A30
S1131890002873696D3930305F677072735F696EE9
S11318A0697429207468652053415042523D312C9B
S11318B0312071756572792077656E742077726F47
S11318C06E6720666F7220736F6D65207265617339
S11318D06F6E2C2070726F6365647572652061622F
S11318E06F727465640D0A0041542B534150425287
S11318F03D322C310D0A002873696D3930305F6731
S11319007072735F696E697429207468652053412D
S11319105042522071756572792077656E74207714
S1131920726F6E6720666F7220736F6D65207265CB
S113193061736F6E2C2070726F63656475726520BD
S113194061626F727465640D0A002873696D3930C1
S1131950305F677072735F696E69742920626561B4
S1131960726572206973203A20002873696D3930DA
S1131970305F677072735F696E697429207468657B
S11319802053415042522071756572792077656EFB
S1131990742077726F6E672C2070726F6365647544
S11319A072652061626F727465640D0A0028736940
S11319B06D3930305F677072735F696E69742920A6
S11319C074686520726571756573746564206265F9
S11319D06172657220697320696E2027636F6E6E71
S11319E0656374696E6727207374617475732E2040
S11319F0436865636B20616761696E20696E20329C
S1131A00207365636F6E64730D0A002873696D3902
S1131A1030305F677072735F696E6974292074680F
S1131A2065207265717565737465642062656172A1
S1131A306572206973206F70656E0D0A00287369E2
S1131A406D3930305F677072735F696E6974292015
S1131A507468652072657175657374656420626568
S1131A606172657220697320636C6F736564206FA3
S1131A707220696E20636C6F73696E672073746182
S1131A8074757320284552524F52290D0A0041544F
S1131A902B53415042523D302C310D0A0041542BFE
S1131AA048545450524541440D0A002B4854545054
S1131AB0524541443A002873696D3930305F687487
S1131AC074705F72656164312920233120676F74FB
S1131AD02074696D656F75742077616974696E67C8
S1131AE020666F722073696D3930302072657370AF
S1131AF06F6E73650D0A002873696D3930305F6845
S1131B007474705F726561643129202331207072AE
S1131B106F766964656420627566666572206973B0
S1131B20206E6F742062696720656E6F7567680D3B
S1131B300A002873696D3930305F687474705F729D
S1131B40656164322920233220676F742074696DC3
S1131B50656F75742077616974696E6720666F724A
S1131B602073696D39303020726573706F6E7365E0
S1131B700D0A002873696D3930305F687474705FC2
S1131B807265616432292023322070726F76696431
S1131B90656420627566666572206973206E6F7471
S1131BA02062696720656E6F7567680D0A0041548D
S1131BB00D0A002873696D3930305F687474705F82
S1131BC0676574292053494D393030206E6F742075
S1131BD0726573706F6E64696E67200D0A004154FC
S1131BE02B48545450494E49540D0A002873696DCA
S1131BF03930305F687474705F67657429204154AC
S1131C002B48545450494E4954206E6F74204F4B06
S1131C100D0A0041542B48545450504152413D2226
S1131C20434944222C310D0A002873696D39303040
S1131C305F687474705F676574292041542B48543D
S1131C405450504152413D2243494422206E6F7406
S1131C50204F4B0D0A0041542B48545450504152CC
S1131C60413D2255524C222C2200220D0A0041549F
S1131C702B48545450414354494F4E3D300D0A00B3
S1131C8028687474705F67657429204854545041FF
S1131C904354494F4E206469646E277420726574FE
S1131CA075726E204F4B0D0A002B4854545041431B
S1131CB054494F4E3A0028687474705F67657429FC
S1131CC0206469646E277420676F74202B687474B1
S1131CD070616374696F6E2061626F7274696E679C
S1131CE00D0A002873696D3930305F687474705F51
S1131CF06765742920676F742074696D656F7574E6
S1131D002077616974696E6720666F7220687474E5
S1131D1070616374696F6E20726573706F6E736542
S1131D200D0A002873696D3930305F687474705F10
S1131D30676574292068747470616374696F6E20B8
S1131D4072657475726E65643A20002873696D3922
S1131D5030305F687474705F6765742920687474C8
S1131D607067657420726573706F6E736520776138
S1131D7073206E6F74204F4B0D0A0041542B48544E
S1131D805450524541440D0A002B48545450524576
S1131D9041443A002873696D3930305F6874747057
S1131DA05F6765742920233120676F742074696D1F
S1131DB0656F75742077616974696E6720666F72E8
S1131DC02073696D39303020726573706F6E73657E
S1131DD00D0A002873696D3930305F687474705F60
S1131DE0676574292023312070726F766964656495
S1131DF020627566666572206973206E6F74206256
S1131E00696720656E6F7567680D0A0041540D0A95
S1131E10002873696D3930305F687474705F706F57
S1131E207374292053494D393030206E6F742072F9
S1131E306573706F6E64696E67200D0A0041542BE0
S1131E4048545450494E49540D0A0041542B4854A7
S1131E505450504152413D22434944222C310D0AF1
S1131E600041542B48545450504152413D22555244
S1131E704C222C2200220D0A0041542B4854545069
S1131E80444154413D25642C25640D0A00444F57B8
S1131E904E4C4F41440041542B48545450414354F8
S1131EA0494F4E3D310D0A0028687474705F706F9D
S1131EB07374292048545450414354494F4E20646C
S1131EC069646E27742072657475726E204F4B0DB1
S1131ED00A002B48545450414354494F4E3A002869
S1131EE0687474705F706F737429202B68747470D5
S1131EF0616374696F6E2069732074616B696E67C6
S1131F002061207768696C650D0A002B4854545091
S1131F10414354494F4E3A0028687474705F706F9F
S1131F20737429202B68747470616374696F6E20F4
S1131F3069732074616B696E672061206C6F740D26
S1131F400A002B48545450414354494F4E3A0028F8
S1131F50687474705F706F737429206469646E2789
S1131F607420676F74202B68747470616374696F74
S1131F706E2061626F7274696E670D0A002873695E
S1131F806D3930305F687474705F706F73742920BA
S1131F9068747470616374696F6E207265747572AD
S1131FA06E65643A20002873696D3930305F687457
S1131FB074705F676574292068747470706F7374CB
S1131FC020726573706F6E736520776173206E6F16
S1131FD074204F4B0D0A0041542B4854545054451F
S1131FE0524D0D0A004552524F5200524541445938
S1131FF00050485F53494D2050494E0050485F53AC
S1132000494D2050554B0053494D2050494E320004
S113201053494D2050554B32000D0A0020205B4F90
S113202055545D092F5C20000D0A0020205B494EA9
S11320305D095C2F20000D0A0020205B494E5D09DC
S11320405C2F20000D0A0020205B4F55545D092FA2
S11320505C20000D0A00096669727374207469704B
S11320602063656E74733A2025750D0A096C6173DB
S113207074207469702063656E74733A25750D0A53
S1132080096D617820736C6F70652063656E74737D
S11320903A2025750D0A09746970733A2025750D67
S11320A00A096D617820736C6F70652025750D0ABF
S11320B0000011241FBECFEFDFE5DEBFCDBF00E07F
S11320C00CBF11E2A0E0B0E2E0E1FFEE00E00BBFE4
S11320D002C007900D92AE37B107D9F727E2A0E806
S11320E0B1E201C01D92AC37B207E1F70E94491971
S11320F00C9486770C940000CF92DF92EF92FF92BB
S11321000F931F936B017C0120E030E040E05FE41B
S113211098D487FD0CC020E030E040E05FE4C701C4
S1132120B601E1D241D58B019C01305805C0C701ED
S1132130B6013AD58B019C01B801C9011F910F91D9
S1132140FF90EF90DF90CF900895A0E0B0E0EBEA2D
S1132150F0E10C94DC726B017C0120E030E040E89B
S11321605FE39BD487FD80C020E030E040E85FE47B
S1132170C701B60192D487FF09C0C701B601BCDF0D
S11321804B015C01C12CD12C760187C020E030E0EA
S113219040E85FE5C701B60180D487FF6EC020E048
S11321A030E040E85FE2C701B601C9D28B01D82F05
S11321B0C92F95E0292E312C20E1C22ED12CE12CFF
S11321C0F12C812C912C540161E070E080E090E0CE
S11321D00C2C04C0660F771F881F991F0A94D2F72E
S11321E031D52B013C01762F272F352D462D572D28
S11321F0FE01602F712F8F2F9C2F23D487FD11C0D8
S11322008C289D28AE28BF28242D352D462D572DEA
S1132210FE01602F712F8F2F9C2F73D38B01D82F2A
S1132220C92FF694E794D794C79481E0281A31080B
S113223059F620E030E040E85FE4FE01602F712FA2
S11322408F2F9C2F7CD258DFDC01CB019C01AD0188
S113225060E070E080E090E0082D0E94A2724901E5
S11322605A016B017C0119C0812C912CA12CB12C39
S1132270C12CD12CE12CF12C10C088248A949924EF
S11322809A94AA24AA94BB24BA94CC24CA94DD2494
S1132290DA94EE24EA94FF24FA949401A501B60199
S11322A0C701CDB7DEB7E2E10C94F5722F923F92ED
S11322B04F925F926F927F928F929F92AF92BF9252
S11322C0CF92DF92EF92FF920F931F93CF93190156
S11322D02A013B014C0160E070E080E090E0510194
S11322E06201730184010E941C7321F4B101C201D3
S11322F0A9D463C09101A201B301C40100E20E9408
S11323000D73B901CA010E94C372AA2797FDA09553
S1132310BA2F20E2C22ED12CE12CF12CC81AD90AF2
S1132320EA0AFB0ACC2D9101A201B301C4010C2DD0
S11323300E940D7360E270E06C197D0904C0220CE8
S1132340331C441C551C6A95D2F7622F2328242879
S1132350252809F401C06160732FCA0173D43B01BD
S11323604C0180E2C816D104E104F104A1F09FE11C
S1132370C916D104E104F10491F061E070E080E059
S113238090E004C0660F771F881F991FCA95D2F783
S1132390B0D3272F08C060E020E080E803C060E0ED
S11323A020E080E09FE4F22F262F3F2F482F592F63
S11323B0662D772D882D992DC2D1CF911F910F9124
S11323C0FF90EF90DF90CF90BF90AF909F908F9051
S11323D07F906F905F904F903F902F900895A4E06E
S11323E0B0E0E5EFF1E10C94DE727C016A01FC01DE
S11323F08081823008F44AC1FB019081923008F454
S113240042C1843079F4943009F040C1F7019181DC
S1132410FB018181981709F439C1A6ECEA2EA0E2E8
S1132420FA2E34C1943009F42EC1923091F48230E2
S113243009F02CC188E0F701DA0101900D928A9528
S1132440E1F7FB018181F70191818923FA018183FD
S11324501CC1823009F417C1F70182819381FB0109
S1132460A281B381F7010481158126813781FB01A3
S113247084809580A680B780FC01EA1BFB0BAF012A
S1132480F7FF04C0442755274E1B5F0B403251050C
S11324900CF074C01E161F06B4F524013501042E79
S11324A004C076946794579447940A94D2F7498267
S11324B05A826B827C82412C512C3201439404C099
S11324C0440C551C661C771C4A95D2F741E0441A0B
S11324D0510861087108482059206A207B20812C0A
S11324E0912C5401839445284628472819F4812CBB
S11324F0912C540149805A806B807C8084289528D3
S1132500A628B72846C0EF2B09F443C0840F951FB3
S113251028013901042E04C0769467945794479493
S11325200A94D2F749825A826B827C82412C512CC4
S11325303201439404C0440C551C661C771C4A9514
S1132540D2F741E0441A510861087108402251222F
S11325506222732201E010E020E030E045284628A2
S1132560472819F400E010E0980149805A806B80F4
S11325707C8004291529262937290BC0A817B907F7
S113258024F4812C912C540104C0CD0100E010E00E
S11325909801F7014181FB015181451709F446C0B7
S11325A0442349F024013501401A510A620A730A8E
S11325B09301820104C0081919092A093B0937FD4E
S11325C005C0F6011182828393830CC041E0F601B9
S11325D041838283938330952095109501951F4FF5
S11325E02F4F3F4F04831583268337830EC0880FF4
S11325F0991FAA1FBB1FF60184839583A683B78303
S113260082819381019782839383F60184819581EA
S1132610A681B781AC01BD0141505109610971091D
S11326204F3F5F4F6F4F7F4310F30CC0F601418360
S113263082839383080D191D2A1D3B1D0483158372
S11326402683378383E0F601808344815581668144
S1132650778177FF1AC0DB01CA0181709927AA2705
S1132660BB277695679557954795842B952BA62B75
S1132670B72B84839583A683B78382819381019644
S11326808283938302C07B0101C07601C701249633
S1132690E0E10C94F772A0E2B0E0E1E5F3E10C9420
S11326A0EC726D8F7E8F8F8F98A3298F3A8F4B8F0B
S11326B05C8FBE016F5E7F4FCE014D9602D4BE018A
S11326C0675F7F4FCE014996FCD3AE014F5F5F4FEA
S11326D0BE01675F7F4FCE01419681DE28D3A0966D
S11326E0E2E00C940573A0E2B0E0E9E7F3E10C94B6
S11326F0EC726D8F7E8F8F8F98A3298F3A8F4B8FBB
S11327005C8FBE016F5E7F4FCE014D96DAD3BE0162
S1132710675F7F4FCE014996D4D38A8591E089279C
S11327208A87AE014F5F5F4FBE01675F7F4FCE0167
S1132730419655DEFCD2A096E2E00C940573A0E22B
S1132740B0E0E5EAF3E10C94DE726D8F7E8F8F8F3B
S113275098A3298F3A8F4B8F5C8FBE016F5E7F4F9A
S1132760CE014D96AED3BE01675F7F4FCE01499631
S1132770A8D39989923008F412C08985823008F46C
S11327801AC0943021F4823009F4B4C008C08430F3
S113279021F4923009F4AEC00EC0923051F481E0BD
S11327A02A899A85291301C080E08A8BCE0141963B
S11327B0A3C0823051F481E02A899A85291301C08B
S11327C080E08A87CE01099697C08D889E88AF885D
S11327D0B88C0D851E852F853889E0E2F0E080E015
S11327E090E0DC01C12CD12C760140E050E0BA012C
S11327F080FE18C0400F511F621F731F8C0D9D1D5A
S1132800AE1DBF1D412C512C32014394401751077A
S11328106207730718F0412C512C3201840D951D69
S1132820A61DB71DCC0CDD1CEE1CFF1C37FF02C01F
S11328306894C0F8000F111F221F331FB694A79489
S1132840979487943197A1F62B893C89EB85FC8575
S11328502E0F3F1F2E5F3F4F2B833C8321E0EA89DD
S11328603A85E31301C020E02A83EB81FC810CC08C
S113287080FF05C076956795579547957068B6951E
S1132880A795979587953196B7FDF2CF9F010CC018
S1132890880F991FAA1FBB1F77FD8160440F551F26
S11328A0661F771F215031090097A105E0E4BE0798
S11328B078F32B833C838C019D010F77112722270A
S11328C03327003411052105310559F487FD09C06A
S11328D0452B462B472B29F0805C9F4FAF4FBF4FB2
S11328E080788D839E83AF83B88783E08983CE010C
S11328F0019602C086EC90E21AD2A096E0E10C9414
S1132900F772A8E1B0E0E7E8F4E10C94E6726D8BAD
S11329107E8B8F8B988F298B3A8B4B8B5C8BBE0174
S1132920675F7F4FCE014596CCD2BE016F5F7F4F6C
S1132930CE014196C6D29985923008F475C089813A
S1132940823008F474C02A853A8123272A87943078
S113295011F0923019F4981367C06CC0843039F4C4
S11329601D861E861F86188A1B861C8604C082301C
S113297029F484E08987CE0109965EC08B859C8505
S11329802B813C81821B930B8B879C874D855E85B5
S11329906F857889CD80DE80EF80F8844C155D05E5
S11329A06E057F0538F4440F551F661F771F019786
S11329B08B879C87EFE1F0E000E010E020E030E45A
S11329C080E090E0DC014C155D056E057F0540F06C
S11329D0802B912BA22BB32B4C195D096E097F0917
S11329E03695279517950795440F551F661F771F32
S11329F0319749F78C019D010F771127222733273F
S1132A00003411052105310559F487FD09C0452B12
S1132A10462B472B29F0805C9F4FAF4FBF4F8078E8
S1132A208D879E87AF87B88BCE01099605C0CE01EE
S1132A30019602C086EC90E27AD16896E8E00C94A4
S1132A40FF72A8E1B0E0E7E2F5E10C94EC726D8B63
S1132A507E8B8F8B988F298B3A8B4B8B5C8BBE0133
S1132A60675F7F4FCE0145962CD2BE016F5F7F4FCB
S1132A70CE01419626D28985823050F089818230F8
S1132A8038F0BE016F5F7F4FCE01099689D201C035
S1132A908FEF6896E2E00C940573A8E1B0E0E3E5FB
S1132AA0F5E10C94EC726D8B7E8B8F8B988F298B58
S1132AB03A8B4B8B5C8BBE01675F7F4FCE01459693
S1132AC000D2BE016F5F7F4FCE014196FAD1898556
S1132AD0823050F08981823038F0BE016F5F7F4FC1
S1132AE0CE0109965DD201C081E06896E2E00C94C3
S1132AF00573A8E0B0E0EFE7F5E10C94EA7223E097
S1132B0029838B019C01002737FD03951127222778
S1132B103327402F0A83611571058105910519F446
S1132B2082E0898335C02EE130E02B833C8344234B
S1132B3071F061157105810520E8920769F100279C
S1132B4011279801061B170B280B390B02C08B01A8
S1132B509C01C901B8010E94C37201971816190695
S1132B602CF00D831E832F83388712C0082E04C0D7
S1132B70000F111F221F331F0A94D2F70D831E83E7
S1132B802F8338872EE130E0281B390B2B833C83BD
S1132B90CE010196CCD004C060E070E080E09FECF0
S1132BA02896E4E00C940373ACE0B0E0EAEDF5E1C0
S1132BB00C94EA7269877A878B879C87BE016F5F62
S1132BC07F4FCE0109967DD18981823091F1823087
S1132BD080F1843041F48A81882331F100E010E0EF
S1132BE020E030E829C02B813C8137FD22C02F3101
S1132BF031058CF78EE190E0821B930B0D811E81D1
S1132C002F81388504C036952795179507958A95A1
S1132C10D2F78A81882381F030952095109501950B
S1132C201F4F2F4F3F4F08C00FEF1FEF2FEF3FE70E
S1132C3003C000E010E09801B801C9012C96E4E05B
S1132C400C940373A8E0B0E0E8E2F6E10C94E672B9
S1132C508B019C011A82611571058105910519F496
S1132C6082E089835DC083E089834EE150E04B8339
S1132C705C83C901B8010E94C372019797FF39C0F0
S1132C80EE27FF27E81BF90B41E050E060E070E01D
S1132C900E2E04C0440F551F661F771F0A94D2F7E7
S1132CA0415051096109710940235123622373235F
S1132CB0C12CD12C7601C394452B462B472B19F4F8
S1132CC0C12CD12C760104C036952795179507950C
S1132CD0EA95D2F70C291D292E293F290D831E833D
S1132CE02F8338872EE130E0281B390B2B833C835C
S1132CF017C0009729F40D831E832F83388710C0D3
S1132D00082E04C0000F111F221F331F0A94D2F78C
S1132D100D831E832F833887481B590B4B835C8399
S1132D20CE01019604D02896E8E00C94FF720F932C
S1132D301F93CF93DF93DC0114964D915D916D91B8
S1132D407C9117971196EC9111978C91823020F415
S1132D5060618FEF90E0A6C0843009F49EC0823099
S1132D6009F495C0411551056105710509F492C036
S1132D7012962D913C91139722388FEF38070CF05F
S1132D8058C0C2E8DFEFC21BD30BCA31D1056CF5C2
S1132D908A019B010C2E04C036952795179507953B
S1132DA00A94D2F781E090E0A0E0B0E00C2E04C0D9
S1132DB0880F991FAA1FBB1F0A94D2F70197A10974
S1132DC0B10984239523A623B72341E050E060E0B2
S1132DD070E0892B8A2B8B2B19F440E050E0BA0168
S1132DE0402B512B622B732B03C040E050E0BA01FF
S1132DF0DB01CA018F779927AA27BB278034910565
S1132E00A105B10539F447FF09C0405C5F4F6F4F1E
S1132E107F4F04C0415C5F4F6F4F7F4F81E090E074
S1132E2041155105610520E4720748F580E090E002
S1132E3026C0203831058CF5DB01CA018F7799272C
S1132E40AA27BB2780349105A105B10539F447FFB2
S1132E5009C0405C5F4F6F4F7F4F04C0415C5F4FC0
S1132E606F4F7F4F77FD04C0C90181589F4F07C042
S1132E707695679557954795C90180589F4F97E078
S1132E8076956795579547959A95D1F70BC080E04D
S1132E9090E005C080E090E005C08FEF90E040E056
S1132EA050E0BA01982F9695E0FB97F9362F80FBF6
S1132EB037F9642F752F832FDF91CF911F910F91D5
S1132EC00895CF92DF92EF92DC01FB01CC90119632
S1132ED0DC90119712968C9112973FE7E32EE8222B
S1132EE06E2DA60170E0982F991F9927991F1396AC
S1132EF02C91822F880F892B90E027FB222720F921
S1132F002183009729F5411551056105710511F4D7
S1132F1082E027C082E89FEF8283938327E0440FF7
S1132F20551F661F771F2A95D1F783E0808309C058
S1132F30440F551F661F771F8281938101978283F7
S1132F40938341155105610580E4780788F320C017
S1132F508F3F910579F4411551056105710519F407
S1132F6084E0808319C0E4FE03C081E0808310C044
S1132F7010820EC08F5791098283938383E08083EC
S1132F8087E0440F551F661F771F8A95D1F7706439
S1132F904483558366837783EF90DF90CF900895C1
S1132FA0CF93FC01DB019081923008F452C08C91E4
S1132FB0823008F44EC0943071F4843039F41196A0
S1132FC02C9130E08181281B310948C081818823FC
S1132FD009F43FC03BC0843029F411968C918111CF
S1132FE038C034C0923019F48230B9F735C0823019
S1132FF069F3C18111968C911197C8131DC0228168
S1133000338112968D919C911397821793070CF438
S113301013C0281739070CF417C044815581668101
S1133020778114968D919D910D90BC91A02D84175C
S11330309507A607B70718F4C11108C00AC04817B6
S113304059076A077B0740F4C11103C02FEF3FEF14
S113305005C021E030E002C020E030E0C901CF919A
S11330600895CF93DF931F92CDB7DEB78FE390E03F
S1133070FC0180818983F89489810F90DF91CF913D
S11330800895CF93DF931F92CDB7DEB789838FE383
S113309090E02981FC0120830F90DF91CF91089566
S11330A0CF93DF931F92CDB7DEB719820AC089810F
S11330B0882F90E08E59984DFC01108289818F5F92
S11330C089838981853098F381E0809367270F9005
S11330D0DF91CF910895CF93DF93CDB7DEB780E032
S11330E09CE6ACEDB2E0BC01CD01DF91CF91089537
S11330F0CF93DF931F92CDB7DEB7198281E0898326
S1133100EADFDC01CB012981222F30E0022E04C04A
S1133110B695A795979587950A94D2F7BC01CD01EA
S11331200F90DF91CF910895CF93DF93CDB7DEB7A2
S1133130DFDFDC01CB01BC01CD01DF91CF9108952C
S1133140CF93DF93CDB7DEB7EFDFDC01CB01BC015A
S1133150CD01DF91CF910895CF93DF93CDB7DEB743
S1133160EFDFDC01CB01BC01CD01DF91CF910895EC
S11331706150710981099109D9F70895CF93DF93BB
S1133180CDB7DEB72897CDBFDEBF88878885898312
S113319089818A838A818B838B818695869586959E
S11331A08C838C81882F90E0880F991F829592954B
S11331B0907F9827807F98279A5F8D839E8389814B
S11331C08F838F81882F90E09C012770332781E0C3
S11331D090E002C0880F991F2A95E2F7282F8D816D
S11331E09E81FC0127832896CDBFDEBFDF91CF915E
S11331F00895CF93DF93CDB7DEB780EA90E027E060
S1133200FC012283DF91CF910895CF93DF9300D007
S1133210CDB7DEB789839A836B8389819A81FC0158
S11332208381282F2F7C8B81882F90E08295929523
S1133230907F9827807F9827822B282F89819A81D5
S1133240FC0123832396CDBFDEBFDF91CF91089588
S1133250CF93DF9300D0CDB7DEB789839A836B8396
S113326089819A81FC018381282F237F8B81882F78
S113327090E0880F991F880F991F822B282F89812E
S11332809A81FC0123832396CDBFDEBFDF91CF91CA
S113329008952F923F924F925F926F927F928F92F6
S11332A09F92AF92BF92CF92DF92EF92FF920F93D1
S11332B01F93CF93DF93CDB7DEB7C155D109CDBFEF
S11332C0DEBF82E080931D20EBDE0E94B95A0E948B
S11332D07B550E944B4B8DDF62E080E00E94065BD1
S11332E060E186E00E94065B60E070E280EA9BE0B9
S11332F00E94DA698CEF91E041E0BC0181E00E9418
S11333009E5980911D208823C1F087E092E041E01E
S1133310BC0181E00E949E5980E990E0FC01838118
S11333208F708F5B682F80EA9BE00E94F26841E017
S113333069E170E281E00E949E5964E080E00E94AD
S1133340065B000080E294E0FC018181882F90E01C
S1133350817099270097B1F780E00E948E5F8823DF
S113336039F00E94B95F60E070E0CB010E94565FC3
S113337087E192E041E0BC0181E00E949E5971DE48
S1133380898380E590E020E530E0F9012281226024
S1133390FC01228380E590E020E530E0F901208102
S11333A02860FC01208389816CDE80E590E0FC01CB
S11333B08181882F90E0887099270097B1F385E385
S11333C092E041E0BC0181E00E949E5984E492E0D5
S11333D041E0BC0181E00E949E59CE0102964AE080
S11333E050E0BC0182E090E00E946074CE0102963D
S11333F040E0BC0181E00E949E5988E592E041E0F2
S1133400BC0181E00E949E59CE0102964AE050E040
S1133410BC0184E090E00E946074CE01029640E01A
S1133420BC0181E00E949E5982E792E041E0BC0128
S113343081E00E949E5941E060EA7AE084E397E2E9
S11334400E94525561E080EA9AE0DFDE60E080EAA3
S11334509AE0FEDE78940E94594B0E94B44A80E0C0
S11334600E941A5A0E945528882321F40E9429494F
S11334700E94184288E182DE6FDEDC01CB018C0100
S11334809D0140E050E0BA0123960FAF23972496A4
S11334901FAF249725962FAF259726963FAF2697E3
S11334A027964FAF279728965FAF289729966FAF37
S11334B029972A967FAF2A9723961FAD23972B9699
S11334C01FAF2B9724962FAD24972C962FAF2C97B4
S11334D025963FAD25972D963FAF2D9726964FAD58
S11334E026972E964FAF2E9727965FAD27972F9648
S11334F05FAF2F9728966FAD289760966FAF609750
S113350029967FAD299761967FAF61972A968FADF3
S11335102A9762968FAF62972B962FAD2B972C9696
S11335203FAD2C972D964FAD2D972E965FAD2E97D0
S11335302F966FAD2F9760967FAD609761968FAD94
S1133540619762969FAD629702E00E94A272A22EDA
S1133550B32EC42ED52EE62EF72E082F192F2B9618
S1133560AFAE2B972C96BFAE2C972D96CFAE2D9742
S11335702E96DFAE2E972F96EFAE2F976096FFAE66
S1133580609761960FAF619762961FAF62972B9613
S11335902FAD2B972C963FAD2C972D964FAD2D9795
S11335A02E965FAD2E972F966FAD2F9760967FADB9
S11335B0609761968FAD619762969FAD629705E0C3
S11335C00E94A272222E332E442E552E662E772E62
S11335D0882E992E222D332D442D552D662D772D91
S11335E0882D992D2B96AFAC2B972C96BFAC2C978E
S11335F02D96CFAC2D972E96DFAC2E972F96EFAC51
S11336002F976096FFAC609761960FAD61976296B5
S11336101FAD62970E94BA72222E332E442E552E6D
S1133620662E772E882E992E222D332D442D552D3E
S1133630662D772D882D992D2396AFAC239724964C
S1133640BFAC24972596CFAC25972696DFAC26975A
S11336502796EFAC27972896FFAC289729960FADAD
S113366029972A961FAD2A970E94B172222E332ED3
S1133670442E552E662E772E882E992E222D332DEC
S1133680442D552D662D772D882D992D02E00E940D
S1133690A272A22EB32EC42ED52EE62EF72E082FFC
S11336A0192F2A2C3B2C4C2C5D2C6E2C7F2C802E1D
S11336B0912EA22CB32CC42CD52CE62CF72C082D3F
S11336C0192D2A2D3B2D4C2D5D2D6E2D7F2D802FF8
S11336D0912F29513C4F4F4F5F4F6F4F7F4F8F4F6B
S11336E09F4FA22EB32EC42ED52EE62EF72E082FD2
S11336F0192F2A2D3B2D4C2D5D2D6E2D7F2D802FC6
S1133700912F0E945611DC01CB0120E030E84BEBF5
S113371055E4BC01CD01F5D8DC01CB01BC01CD01E0
S11337200E94A510A22EB32EC42ED52EE62EF72E5F
S1133730082F192FD601C501BC01CD0119DD9ACE80
S1133740CF93DF93CDB7DEB72797CDBFDEBF8C8392
S11337506D837E834F838C81882F90E09E012E5F42
S11337603F4F42E050E0B9010E94E05E8F81882F14
S113377090E02A813B8140E050E1BA01621B730B67
S11337809B012817390708F4C90189838981482FC7
S113379050E08A819B812D813E81B9010E94E05EC7
S11337A02796CDBFDEBFDF91CF910895CF93DF93EE
S11337B01F921F92CDB7DEB742E050E0CE010196D2
S11337C0BC0180E090E00E94E05E89819A8121E062
S11337D08C3A31E0930709F020E0822F0F900F908C
S11337E0DF91CF910895CF93DF9300D0CDB7DEB7AB
S11337F089839A836B8389819A814B81BC0188E098
S11338009FDF2396CDBFDEBFDF91CF910895CF9385
S1133810DF9300D0CDB7DEB789839A836B83898128
S11338209A814B81BC0186E08BDF2396CDBFDEBF3E
S1133830DF91CF910895CF93DF9300D0CDB7DEB75A
S113384089839A836B8389819A814B81BC0184E04B
S113385077DF2396CDBFDEBFDF91CF910895CF935D
S1133860DF9300D0CDB7DEB789839A836B838981D8
S11338709A814B81BC018AE063DF2396CDBFDEBF12
S1133880DF91CF910895CF93DF9300D0CDB7DEB70A
S113389089839A836B8389819A814B81BC018CE0F3
S11338A04FDF2396CDBFDEBFDF91CF910895CF9335
S11338B0DF93CDB7DEB76897CDBFDEBF898B9A8B18
S11338C06B8B7C8B4D8B5E8B2F8B388F40E1CE01C5
S11338D00196BC018EE034DF89819A81AB81BC8181
S11338E029893A89F90180839183A283B3838D81E5
S11338F09E81AF81B8852B893C89F90180839183AE
S1133900A283B38389859A85AB85BC852D893E893D
S1133910F90180839183A283B3838D859E85AF85CE
S1133920B8892F89388DF90180839183A283B38369
S11339306896CDBFDEBFDF91CF910895CF93DF931B
S11339401F92CDB7DEB7898388E490E028E430E0A5
S1133950F9012081322F317F2981232BFC0120831F
S11339600F90DF91CF910895CF93DF931F92CDB73E
S1133970DEB789838981882F90E00197825E9F4D0D
S1133980FC018081DBDF88E490E028E430E0F90189
S113399020812160FC0120837894889588E490E05C
S11339A028E430E0F90120812E7FFC0120830F9070
S11339B0DF91CF910895CF93DF9300D0CDB7DEB7D9
S11339C0198282E697E28A839B8308C08A819B815D
S11339D001968A839B8389818F5F89838A819B81F6
S11339E0FC018081882391F389812396CDBFDEBFBA
S11339F0DF91CF910895CF93DF931F92CDB7DEB7B8
S1133A00F894D9DF89838981882311F4789402C0DA
S1133A108981AADF0F90DF91CF910895CF93DF932F
S1133A20CDB7DEB780E09CE6ACEDB2E0BC01CD01E1
S1133A30DF91CF910895CF93DF931F92CDB7DEB777
S1133A40198281E08983EADFDC01CB012981222FFD
S1133A5030E0022E04C0B695A795979587950A94F1
S1133A60D2F7BC01CD010F90DF91CF910895CF9390
S1133A70DF93CDB7DEB7DFDFDC01CB01BC01CD01C5
S1133A80DF91CF910895CF93DF93CDB7DEB7EFDF0A
S1133A90DC01CB01BC01CD01DF91CF910895CF931F
S1133AA0DF93CDB7DEB7EFDFDC01CB01BC01CD0185
S1133AB0DF91CF9108956150710981099109D9F776
S1133AC00895CF93DF93CDB7DEB72897CDBFDEBF80
S1133AD088878885898389818A838A818B838B817E
S1133AE08695869586958C838C81882F90E0880FA7
S1133AF0991F82959295907F9827807F98279A5F47
S1133B008D839E8389818F838F81882F90E09C0190
S1133B102770332781E090E002C0880F991F2A950F
S1133B20E2F7282F8D819E81FC0127832896CDBF43
S1133B30DEBFDF91CF910895CF93DF9300D01F9222
S1133B40CDB7DEB769837A838B839C830E94685FD9
S1133B509B01AC0189819A81AB81BC81820F931F47
S1133B60A41FB51FBC01CD010E947E5F2496CDBF6A
S1133B70DEBFDF91CF910895CF93DF9300D0CDB70F
S1133B80DEB789839A836B8389819A81FC01808162
S1133B90982F907F8B81892B282F89819A81FC0112
S1133BA020832396CDBFDEBFDF91CF910895CF93BD
S1133BB0DF931F921F92CDB7DEB789839A838981E1
S1133BC09A81FC0180818F700F900F90DF91CF91CB
S1133BD00895CF93DF9300D000D0CDB7DEB78D83A7
S1133BE09E8351DFDC01CB0189839A83AB83BC8341
S1133BF08D819E81DCDF882F90E08330910509F46C
S1133C0061C0843091055CF48130910509F47DC074
S1133C10823091050CF067C0009771F071C0853057
S1133C20910571F185309105E4F186309105D9F063
S1133C308730910531F064C019821A821B821C827C
S1133C4065C089819A81AB81BC81072E7AE0B695E3
S1133C50A795979587957A95D1F7702D89839A833F
S1133C60AB83BC8353C089819A81AB81BC81892F8A
S1133C709A2FAB2FBB2789839A83AB83BC8346C01F
S1133C8089819A81AB81BC81689415F8B695A79512
S1133C90979587951694D1F789839A83AB83BC83D0
S1133CA035C089819A81AB81BC81689412F8B6953C
S1133CB0A795979587951694D1F789839A83AB83B3
S1133CC0BC8324C089819A81AB81BC81B695A795B8
S1133CD097958795B695A7959795879589839A83A0
S1133CE0AB83BC8313C089819A81AB81BC81B695B7
S1133CF0A7959795879589839A83AB83BC8306C0E0
S1133D0019821A821B821C8201C0000089819A8157
S1133D10AB81BC81BC01CD012696CDBFDEBFDF9156
S1133D20CF910895CF93DF9300D0CDB7DEB78983C9
S1133D309A836B838B81882359F489819A81FC014E
S1133D4080858E6F282F89819A81FC0120870AC083
S1133D5089819A81FC018185282F216089819A813A
S1133D60FC0121872396CDBFDEBFDF91CF9108955B
S1133D70CF93DF9300D01F92CDB7DEB789839A83A8
S1133D806B837C8389819A812B813C81FC0126A3EE
S1133D9037A32496CDBFDEBFDF91CF910895CF9393
S1133DA0DF93CDB7DEB72B97CDBFDEBF888799876A
S1133DB06A877B878A859B85FC0184818D838A85BC
S1133DC09B85FC0185818E838A859B85FC01868188
S1133DD08F838A859B85FC0180819181A281B38137
S1133DE089839A83AB83BC8388859985803AF8E07C
S1133DF09F0721F460E183E00E94065B8885998532
S1133E00803B28E0920721F460E283E00E94065B95
S1133E1088859985803AE9E09E0721F460E184E091
S1133E200E94065B88859985803BF9E09F0721F411
S1133E3060E284E00E94065B88859985803A2AE0E6
S1133E40920721F460E185E00E94065B88859985EC
S1133E50803AEBE09E0721F460E186E00E94065B75
S1133E60888599859E012F5F3F4FB9010E94DA69C9
S1133E70882311F081E001C080E02B96CDBFDEBF26
S1133E80DF91CF910895CF93DF93CDB7DEB7289715
S1133E90CDBFDEBF89839A836B837C834D835E832E
S1133EA02F83388789819A81FC0122818B819C81AF
S1133EB0FC01208389819A81FC0121818D819E816D
S1133EC0FC01208389819A81FC0120818F8198855E
S1133ED0FC0120832896CDBFDEBFDF91CF910895EA
S1133EE0EF92FF920F931F93CF93DF93CDB7DEB77B
S1133EF02897CDBFDEBF6D837E838F839887209103
S1133F00B9213091BA214091BB215091BC218D81BE
S1133F109E81AF81B885820F931FA41FB51FBC017A
S1133F20CD010E947E5F88E1CCDD10920720A89528
S1133F308091082090910920A0910A20B0910B2033
S1133F402D813E814F81588579018A01E81AF90A49
S1133F500A0B1B0BD801C70189839A83AB83BC83EB
S1133F608D819E81AF81B88580930820909309202C
S1133F70A0930A20B0930B202091A1213091A2217B
S1133F804091A3215091A42189819A81AB81BC8164
S1133F90820F931FA41FB51F8093A1219093A22188
S1133FA0A093A321B093A42180918421882301F5B7
S1133FB02091A1213091A2214091A3215091A421CB
S1133FC08091B5219091B621A091B721B091B821EB
S1133FD0281739074A075B0758F01092A12110925D
S1133FE0A2211092A3211092A42181E08093842124
S1133FF02091A5213091A6214091A7215091A8217B
S113400089819A81AB81BC81820F931FA41FB51F44
S11340108093A5219093A621A093A721B093A821D2
S113402080918321882341F52091A5213091A621F7
S11340304091A7215091A8218091AD219091AE216A
S1134040A091AF21B091B021281739074A075B0727
S113405098F01092A5211092A6211092A7211092F7
S1134060A8218D819E81AF81B885BC01CD010E94BC
S11340700B3E81E0809383212091A9213091AA21D4
S11340804091AB215091AC2189819A81AB81BC8153
S1134090820F931FA41FB51F8093A9219093AA2177
S11340A0A093AB21B093AC2180918221882301F5A8
S11340B02091A9213091AA214091AB215091AC21AA
S11340C08091B1219091B221A091B321B091B421FA
S11340D0281739074A075B0758F01092A921109254
S11340E0AA211092AB211092AC2181E0809381210E
S11340F02091B1213091B2214091B3215091B4214A
S1134100DA01C901880F991FAA1FBB1F280F391F85
S11341104A1F5B1F8091A9219091AA21A091AB21F4
S1134120B091AC21281739074A075B0710F40E94A5
S113413092592896CDBFDEBFDF91CF911F910F9189
S1134140FF90EF9008952F923F924F925F926F925B
S11341507F928F929F92AF92BF92CF92DF92EF9213
S1134160FF920F931F93CF93DF93CDB7DEB7A4973E
S1134170CDBFDEBF0E9455451A82A3C18A81882F14
S113418090E0880F991F880F991F880F991F8B83C0
S11341909C8319828FC18981482F50E080914E21E0
S11341A0282F30E0429FC001439F900D529F900DF5
S11341B011249C018B819C81820F931F0496CC0156
S11341C0A0E0B0E08A879B87AC87BD879E01215F12
S11341D03F4FAE01425F5F4FBE01605F7F4FCE0134
S11341E00A9651DE20914E214F856E855889CE0165
S11341F00696022F9C01852F0E94AE4550DCDC01FF
S1134200CB011C012D01612C712C4301A22CB32C78
S1134210C42CD52CE62CF72C082D192D2A2D3B2D3A
S11342204C2D5D2D6E2D7F2D802F912F02E00E944D
S1134230A2722D8B3E8B4F8B588F698F7A8F8B8F09
S11342409C8FAD88BE88CF88D88CE98CFA8C0B8D76
S11342501C8D2A2D3B2D4C2D5D2D6E2D7F2D802FF9
S1134260912FA22CB32CC42CD52CE62CF72C082D82
S1134270192D0E94B172A22EB32EC42ED52EE62E75
S1134280F72E082F192F2A2D3B2D4C2D5D2D6E2D29
S11342907F2D802F912F29513C4F4F4F5F4F6F4FF0
S11342A07F4F8F4F9F4FA22EB32EC42ED52EE62EB6
S11342B0F72E082F192F2A2D3B2D4C2D5D2D6E2DF9
S11342C07F2D802F912F0E945611DC01CB0120E01D
S11342D030E84BEB55E4BC01CD010E948114DC01B4
S11342E0CB01BC01CD010E94A510A22EB32EC42E79
S11342F0D52EE62EF72E082F192FD601C501BC01A5
S1134300CD01D9DB2E813F814885598580914F218C
S113431090915021A0915121B09152212817390731
S11343204A075B0709F0C3C08981815087708D8378
S11343308D81482F50E080914E21282F30E0429FFC
S1134340C001439F900D529F900D11249C018B81BD
S11343509C81820F931F0496CC01A0E0B0E0898B6E
S11343609A8BAB8BBC8B9E01215F3F4FAE01425FAA
S11343705F4FBE01605F7F4FCE01419684DD209187
S11343804E218A81882F90E0880F991F880F991FEA
S11343908A579E4D4F856E855889022F9C01852F23
S11343A00E94AE457CDBDC01CB011C012D01612C9C
S11343B0712C4301A22CB32CC42CD52CE62CF72C45
S11343C0082D192D2A2D3B2D4C2D5D2D6E2D7F2D65
S11343D0802F912F02E00E94A2722D8F3E8F4F8F6B
S11343E058A369A37AA38BA39CA3AD8CBE8CCF8C5A
S11343F0D8A0E9A0FAA00BA11CA12A2D3B2D4C2D7D
S11344005D2D6E2D7F2D802F912FA22CB32CC42CCB
S1134410D52CE62CF72C082D192D0E94B172A22E52
S1134420B32EC42ED52EE62EF72E082F192F2A2DA3
S11344303B2D4C2D5D2D6E2D7F2D802F912F2951DD
S11344403C4F4F4F5F4F6F4F7F4F8F4F9F4FA22E69
S1134450B32EC42ED52EE62EF72E082F192F2A2D73
S11344603B2D4C2D5D2D6E2D7F2D802F912F0E9485
S11344705611DC01CB0120E030E84BEB55E4BC01E4
S1134480CD010E948114DC01CB01BC01CD010E944D
S1134490A510A22EB32EC42ED52EE62EF72E082F4D
S11344A0192FD601C501BC01CD0105DB07C08981E7
S11344B08F5F89838981883008F46DCE8A818F5F0C
S11344C08A838A81823008F459CE81E0A496CDBFD4
S11344D0DEBFDF91CF911F910F91FF90EF90DF909E
S11344E0CF90BF90AF909F908F907F906F905F9090
S11344F04F903F902F9008952F923F924F925F924A
S11345006F927F928F929F92AF92BF92CF92DF92DF
S1134510EF92FF920F931F93CF93DF93CDB7DEB744
S1134520E597CDBFDEBF0E9455451A8206C38A8136
S1134530882F90E0880F991F880F991F880F991F63
S11345408B839C831982F2C28981482F50E0809129
S11345504921282F30E0429FC001439F900D529F74
S1134560900D11249C018B819C81820F931F0496D2
S1134570CC01A0E0B0E08B879C87AD87BE879E010D
S1134580205F3F4FAE01415F5F4FBE016F5E7F4FC3
S1134590CE010B9678DC2091492148896F85598991
S11345A0CE010796022F9C01852F0E94AE4577DA33
S11345B0DC01CB011C012D01612C712C4301A22CC7
S11345C0B32CC42CD52CE62CF72C082D192D2A2D10
S11345D03B2D4C2D5D2D6E2D7F2D802F912F02E0D4
S11345E00E94A2722E8B3F8B488F598F6A8F7B8FCC
S11345F08C8F9D8FAE88BF88C88CD98CEA8CFB8C3D
S11346000C8D1D8D2A2D3B2D4C2D5D2D6E2D7F2D5A
S1134610802F912FA22CB32CC42CD52CE62CF72C54
S1134620082D192D0E94B172A22EB32EC42ED52EA0
S1134630E62EF72E082F192F2A2D3B2D4C2D5D2DFC
S11346406E2D7F2D802F912F29513C4F4F4F5F4F5F
S11346506F4F7F4F8F4F9F4FA22EB32EC42ED52E58
S1134660E62EF72E082F192F2A2D3B2D4C2D5D2DCC
S11346706E2D7F2D802F912F0E945611DC01CB01CE
S113468020E030E84BEB55E4BC01CD010E948114DD
S1134690DC01CB01BC01CD010E94A510A22EB32EDA
S11346A0C42ED52EE62EF72E082F192FD601C501BC
S11346B0BC01CD0100DA2F81388549855A85809166
S11346C04A2190914B21A0914C21B0914D21281762
S11346D039074A075B0709F026C289818150877030
S11346E08D838D81482F50E080914921282F30E01F
S11346F0429FC001439F900D529F900D11249C0135
S11347008B819C81820F931F0496CC01A0E0B0E0C2
S11347108A8B9B8BAC8BBD8B9E01205F3F4FAE0180
S1134720415F5F4FBE016F5E7F4FCE014296ABDBB0
S11347302091492148896F855989CE010796022F16
S11347409C01852F0E94AE45AAD9DC01CB011C0136
S11347502D01612C712C4301A22CB32CC42CD52C1B
S1134760E62CF72C082D192D2A2D3B2D4C2D5D2DD3
S11347706E2D7F2D802F912F02E00E94A2722E8F2A
S11347803F8F48A359A36AA37BA38CA39DA3AE8C9C
S1134790BF8CC8A0D9A0EAA0FBA00CA11DA12A2D02
S11347A03B2D4C2D5D2D6E2D7F2D802F912FA22C16
S11347B0B32CC42CD52CE62CF72C082D192D0E94D3
S11347C0B172A22EB32EC42ED52EE62EF72E082FAC
S11347D0192F2A2D3B2D4C2D5D2D6E2D7F2D802FD5
S11347E0912F29513C4F4F4F5F4F6F4F7F4F8F4F4A
S11347F09F4FA22EB32EC42ED52EE62EF72E082FB1
S1134800192F2A2D3B2D4C2D5D2D6E2D7F2D802FA4
S1134810912F0E945611DC01CB0120E030E84BEBD4
S113482055E4BC01CD010E948114DC01CB01BC0123
S1134830CD010E94A510A22EB32EC42ED52EE62E95
S1134840F72E082F192FD601C501BC01CD0133D98C
S11348502F81388549855A858A81882F90E0880F71
S1134860991F880F991F8A579E4DFC018081918161
S1134870A281B381281739074A075B0709F45AC193
S1134880209149218A81882F90E0880F991F880FF1
S1134890991F8A579E4D48896F855989022F9C011B
S11348A0852F0E948A45FBD8DC01CB011C012D0118
S11348B0612C712C4301A22CB32CC42CD52CE62CD6
S11348C0F72C082D192D2A2D3B2D4C2D5D2D6E2DE9
S11348D07F2D802F912F02E00E94A2722EA33FA36E
S11348E048A759A76AA77BA78CA79DA7AEA0BFA07E
S11348F0C8A4D9A4EAA4FBA40CA51DA52A2D3B2D6C
S11349004C2D5D2D6E2D7F2D802F912FA22CB32C3D
S1134910C42CD52CE62CF72C082D192D0E94B1722D
S1134920A22EB32EC42ED52EE62EF72E082F192F25
S11349302A2D3B2D4C2D5D2D6E2D7F2D802F912FFB
S113494029513C4F4F4F5F4F6F4F7F4F8F4F9F4FBA
S1134950A22EB32EC42ED52EE62EF72E082F192FF5
S11349602A2D3B2D4C2D5D2D6E2D7F2D802F912FCB
S11349700E945611DC01CB0120E030E84BEB55E4FA
S1134980BC01CD010E948114DC01CB01BC01CD012D
S11349900E94A510A22EB32EC42ED52EE62EF72EDD
S11349A0082F192FD601C501BC01CD0184D88D81F2
S11349B08F5F87708E838E81482F50E080914921CC
S11349C0282F30E0429FC001439F900D529F900DCD
S11349D011249C018B819C81820F931F0496CC012E
S11349E0A0E0B0E08A8B9B8BAC8BBD8B9E01205FDB
S11349F03F4FAE01415F5F4FBE016F5E7F4FCE01FF
S1134A00429641DA2091492148899F858989022F5C
S1134A102AE431E2692F0E948A4541D8DC01CB01A6
S1134A201C012D01612C712C4301A22CB32CC42C2C
S1134A30D52CE62CF72C082D192D2A2D3B2D4C2D89
S1134A405D2D6E2D7F2D802F912F02E00E94A2728A
S1134A502EA73FA748AB59AB6AAB7BAB8CAB9DABE6
S1134A60AEA4BFA4C8A8D9A8EAA8FBA80CA91DA9EC
S1134A702A2D3B2D4C2D5D2D6E2D7F2D802F912FBA
S1134A80A22CB32CC42CD52CE62CF72C082D192DD4
S1134A900E94B172A22EB32EC42ED52EE62EF72E6E
S1134AA0082F192F2A2D3B2D4C2D5D2D6E2D7F2D7A
S1134AB0802F912F29513C4F4F4F5F4F6F4F7F4FA6
S1134AC08F4F9F4FA22EB32EC42ED52EE62EF72E37
S1134AD0082F192F2A2D3B2D4C2D5D2D6E2D7F2D4A
S1134AE0802F912F0E945611DC01CB0120E030E889
S1134AF04BEB55E4BC01CD010E948114DC01CB01D8
S1134B00BC01CD010E94A510A22EB32EC42ED52E19
S1134B10E62EF72E082F192FD601C501BC01CD01B1
S1134B200E945B1D07C089818F5F898389818830DA
S1134B3008F40ACD8A818F5F8A838A81823008F4DF
S1134B40F6CC80E0E596CDBFDEBFDF91CF911F911B
S1134B500F91FF90EF90DF90CF90BF90AF909F9018
S1134B608F907F906F905F904F903F902F9008951B
S1134B702F923F924F925F926F927F928F929F9269
S1134B80AF92BF92CF92DF92EF92FF920F931F9357
S1134B90CF93DF93CDB7DEB7A297CDBFDEBF0E9420
S1134BA055451A827FC18A81882F90E0880F991F0A
S1134BB0880F991F880F991F8B839C838B819C81FD
S1134BC00496CC01A0E0B0E08D839E83AF83B887C8
S1134BD09E01265F3F4FAE01475F5F4FBE01655F99
S1134BE07F4FCE0105964FD9209144218A81882F89
S1134BF090E0880F991F880F991F8A579E4D4A8508
S1134C0069855B85022F9C01852F0E948A450E943D
S1134C104F1DDC01CB011C012D01612C712C4301C2
S1134C20A22CB32CC42CD52CE62CF72C082D192D32
S1134C302A2D3B2D4C2D5D2D6E2D7F2D802F912FF8
S1134C4002E00E94A2722B8B3C8B4D8B5E8B6F8B90
S1134C50788F898F9A8FAB88BC88CD88DE88EF885F
S1134C60F88C098D1A8D2A2D3B2D4C2D5D2D6E2D22
S1134C707F2D802F912FA22CB32CC42CD52CE62C65
S1134C80F72C082D192D0E94B172A22EB32EC42E1A
S1134C90D52EE62EF72E082F192F2A2D3B2D4C2D1D
S1134CA05D2D6E2D7F2D802F912F29513C4F4F4F1D
S1134CB05F4F6F4F7F4F8F4F9F4FA22EB32EC42E47
S1134CC0D52EE62EF72E082F192F2A2D3B2D4C2DED
S1134CD05D2D6E2D7F2D802F912F0E945611DC01AA
S1134CE0CB0120E030E84BEB55E4BC01CD010E9440
S1134CF08114DC01CB01BC01CD010E94A510A22EC0
S1134D00B32EC42ED52EE62EF72E082F192FD6013A
S1134D10C501BC01CD010E945B1D81E08983BBC03C
S1134D208981482F50E080914421282F30E0429F10
S1134D30C001439F900D529F900D11249C018B81C3
S1134D409C81820F931F0496CC01A0E0B0E08C8775
S1134D509D87AE87BF879E012F5E3F4FAE01405FA8
S1134D605F4FBE016E5E7F4FCE010C968CD82091B2
S1134D704421498998898A89022F25E431E2692FDF
S1134D800E948A450E944F1DDC01CB011C012D01AC
S1134D90612C712C4301A22CB32CC42CD52CE62CF1
S1134DA0F72C082D192D2A2D3B2D4C2D5D2D6E2D04
S1134DB07F2D802F912F02E00E94A2722B8F3C8FB7
S1134DC04D8F5E8F6F8F78A389A39AA3AB8CBC8C15
S1134DD0CD8CDE8CEF8CF8A009A11AA12A2D3B2DD5
S1134DE04C2D5D2D6E2D7F2D802F912FA22CB32C59
S1134DF0C42CD52CE62CF72C082D192D0E94B17249
S1134E00A22EB32EC42ED52EE62EF72E082F192F40
S1134E102A2D3B2D4C2D5D2D6E2D7F2D802F912F16
S1134E2029513C4F4F4F5F4F6F4F7F4F8F4F9F4FD5
S1134E30A22EB32EC42ED52EE62EF72E082F192F10
S1134E402A2D3B2D4C2D5D2D6E2D7F2D802F912FE6
S1134E500E945611DC01CB0120E030E84BEB55E415
S1134E60BC01CD010E948114DC01CB01BC01CD0148
S1134E700E94A510A22EB32EC42ED52EE62EF72EF8
S1134E80082F192FD601C501BC01CD010E945B1D5D
S1134E9089818F5F89838981883008F441CF8A8131
S1134EA08F5F8A838A81823008F47DCE80E0A29667
S1134EB0CDBFDEBFDF91CF911F910F91FF90EF9097
S1134EC0DF90CF90BF90AF909F908F907F906F9026
S1134ED05F904F903F902F9008952F923F924F9262
S1134EE05F926F927F928F929F92AF92BF92CF9276
S1134EF0DF92EF92FF920F931F93CF93DF93CDB77F
S1134F00DEB72D97CDBFDEBF8FEE9AE041E0BC0146
S1134F1081E00E949E5981E48A8383E48B8380E349
S1134F208C8381E38D83CE01029604E09C0140E0F2
S1134F3060E080E00E948A450E944F1DDC01CB01A5
S1134F401C012D01612C712C4301A22CB32CC42C07
S1134F50D52CE62CF72C082D192D2A2D3B2D4C2D64
S1134F605D2D6E2D7F2D802F912F02E00E94A27265
S1134F702E833F83488759876A877B878C879D87E1
S1134F80AE80BF80C884D984EA84FB840C851D85E7
S1134F902A2D3B2D4C2D5D2D6E2D7F2D802F912F95
S1134FA0A22CB32CC42CD52CE62CF72C082D192DAF
S1134FB00E94B172A22EB32EC42ED52EE62EF72E49
S1134FC0082F192F2A2D3B2D4C2D5D2D6E2D7F2D55
S1134FD0802F912F29513C4F4F4F5F4F6F4F7F4F81
S1134FE08F4F9F4FA22EB32EC42ED52EE62EF72E12
S1134FF0082F192F2A2D3B2D4C2D5D2D6E2D7F2D25
S1135000802F912F0E945611DC01CB0120E030E863
S11350104BEB55E4BC01CD010E948114DC01CB01B2
S1135020BC01CD010E94A510A22EB32EC42ED52EF4
S1135030E62EF72E082F192FD601C501BC01CD018C
S11350400E945B1D198216C08981882F90E0880F09
S1135050991F880F991F9C012A573E4D80E091E0CB
S1135060A0E0B0E0F90180839183A283B3838981B6
S11350708F5F89838981823038F37ADD80E02D96D1
S1135080CDBFDEBFDF91CF911F910F91FF90EF90C5
S1135090DF90CF90BF90AF909F908F907F906F9054
S11350A05F904F903F902F9008952F923F924F9290
S11350B05F926F927F928F929F92AF92BF92CF92A4
S11350C0DF92EF92FF920F931F93CF93DF93CDB7AD
S11350D0DEB7C157D109CDBFDEBF82ED99E041E013
S11350E0BC0182E00E949E5968E874E785E890E577
S11350F00E94565F0E94D61B882349F484EE99E0EF
S113510041E0BC0181E00E949E5981E07DC529EB0C
S113511031E245EB51E26DEA71E281EB91E20E94EA
S1135120571C8091AD219091AE21A091AF21B091F7
S1135130B0212CE23AE04B2F4F934A2F4F93492F43
S11351404F938F93832F8F93822F8F93CE010A9641
S1135150292F2F938F930E94B5740DB71EB7085F44
S11351601F4FCDBFDEBFCE010A9640E0BC0181E0F7
S11351700E949E598091B1219091B221A091B321B6
S1135180B091B42124E43AE04B2F4F934A2F4F932C
S1135190492F4F938F93832F8F93822F8F93CE0119
S11351A00A96292F2F938F930E94B5742DB73EB77B
S11351B0285F3F4FCDBFDEBFCE010A9640E0BC0161
S11351C081E00E949E598091B5219091B621A091D1
S11351D0B721B091B8212BE53AE04B2F4F934A2FDA
S11351E04F93492F4F938F93832F8F93822F8F93B6
S11351F0CE010A96292F2F938F930E94B5744DB731
S11352005EB7485F5F4FCDBFDEBFCE010A9640E078
S1135210BC0181E00E949E598091B9219091BA21EC
S1135220A091BB21B091BC2122E73AE04B2F4F93D0
S11352304A2F4F93492F4F938F93832F8F93822F0E
S11352408F93CE010A96292F2F938F930E94B574C2
S11352506DB77EB7685F7F4FCDBFDEBFCE010A96C4
S113526040E0BC0181E00E949E598091B12190915F
S1135270B221A091B321B091B4218D339105A10540
S1135280B105A0F08091B1219091B221A091B321F8
S1135290B091B4214497A109B1098093A9219093B5
S11352A0AA21A093AB21B093AC2108C01092A921EC
S11352B01092AA211092AB211092AC216DE070E201
S11352C080EA9AE00E94CF1E0E945545CE010A96BC
S11352D004E09C0140E060E080E00E94AE450E9452
S11352E04F1DDC01CB011C012D01612C712C4301EC
S11352F0A22CB32CC42CD52CE62CF72C082D192D5C
S11353002A2D3B2D4C2D5D2D6E2D7F2D802F912F21
S113531002E00E94A2726B962FAF6B976C963FAF20
S11353206C976D964FAF6D976E965FAF6E976F9655
S11353306FAF6F97A0967FAFA097A1968FAFA197FD
S1135340A2969FAFA2976B96AFAC6B976C96BFACCF
S11353506C976D96CFAC6D976E96DFAC6E976F962B
S1135360EFAC6F97A096FFACA097A1960FADA19755
S1135370A2961FADA2972A2D3B2D4C2D5D2D6E2D8F
S11353807F2D802F912FA22CB32CC42CD52CE62C4E
S1135390F72C082D192D0E94B172A22EB32EC42E03
S11353A0D52EE62EF72E082F192F2A2D3B2D4C2D06
S11353B05D2D6E2D7F2D802F912F29513C4F4F4F06
S11353C05F4F6F4F7F4F8F4F9F4FA22EB32EC42E30
S11353D0D52EE62EF72E082F192F2A2D3B2D4C2DD6
S11353E05D2D6E2D7F2D802F912F0E945611DC0193
S11353F0CB0120E030E84BEB55E4BC01CD010E9429
S11354008114DC01CB01BC01CD010E94A510A22EA8
S1135410B32EC42ED52EE62EF72E082F192FD60123
S1135420C501BC01CD010E945B1D198256DD1A82A3
S113543015C08A81882F90E0880F991F880F991FC3
S11354409C012A573E4D8FEF9FEFDC01F9018083C9
S11354509183A283B3838A818F5F8A838A81823016
S113546040F30E94A32084E89AE041E0BC0181E07B
S11354700E949E591B8224C08B81882F90E0880F44
S1135480991F880F991F8A579E4DFC018081918135
S1135490A281B3818F3FFFEF9F07AF07BF0711F4CE
S11354A081E089838B81882F90E0880F991F880F72
S11354B0991F8A579E4D0E94D2458B818F5F8B83A3
S11354C08B818230C8F28981882319F18FEA9AE0AE
S11354D041E0BC0181E00E949E591C8216C08C816F
S11354E0882F90E0880F991F880F991F9C012A57D5
S11354F03E4D80E091E0A0E0B0E0F901808391832B
S1135500A283B3838C818F5F8C838C81823038F348
S11355102FDB0E9497421D8201C000008D818F5FA6
S11355208D838D818A3009F06DC180E00E947E599F
S11355300E948A590E9492590E944F1DDC01CB019E
S11355408C019D0140E050E0BA012B960FAF2B97E0
S11355502C961FAF2C972D962FAF2D972E963FAFDD
S11355602E972F964FAF2F9760965FAF60976196F7
S11355706FAF619762967FAF62972B961FAD2B97A3
S1135580A3961FAFA3972C962FAD2C97A4962FAF5D
S1135590A4972D963FAD2D97A5963FAFA5972E9630
S11355A04FAD2E97A6964FAFA6972F965FAD2F9728
S11355B0A7965FAFA79760966FAD6097A8966FAFF9
S11355C0A89761967FAD6197A9967FAFA9976296D8
S11355D08FAD6297AA968FAFAA97A3962FADA39784
S11355E0A4963FADA497A5964FADA597A6965FAD9B
S11355F0A697A7966FADA797A8967FADA897A996EB
S11356008FADA997AA969FADAA9702E00E94A272B5
S1135610A22EB32EC42ED52EE62EF72E082F192F28
S1135620A396AFAEA397A496BFAEA497A596CFAE0C
S1135630A597A696DFAEA697A796EFAEA797A896CE
S1135640FFAEA897A9960FAFA997AA961FAFAA97DE
S1135650A3962FADA397A4963FADA497A5964FAD5F
S1135660A597A6965FADA697A7966FADA797A896A0
S11356707FADA897A9968FADA997AA969FADAA9733
S113568005E00E94A272222E332E442E552E662E41
S1135690772E882E992E222D332D442D552D662DAF
S11356A0772D882D992DA396AFACA397A496BFAC64
S11356B0A497A596CFACA597A696DFACA697A79678
S11356C0EFACA797A896FFACA897A9960FADA9979A
S11356D0AA961FADAA970E94BA72222E332E442E88
S11356E0552E662E772E882E992E222D332D442D5D
S11356F0552D662D772D882D992D2B96AFAC2B9794
S11357002C96BFAC2C972D96CFAC2D972E96DFAC54
S11357102E972F96EFAC2F976096FFAC609761960B
S11357200FAD619762961FAD62970E94B172222EEF
S1135730332E442E552E662E772E882E992E222D0A
S1135740332D442D552D662D772D882D992D03E06D
S11357500E94A272A22EB32EC42ED52EE62EF72EB0
S1135760082F192F2A2C3B2C4C2C5D2C6E2C7F2CB3
S1135770802E912EA22CB32CC42CD52CE62CF72CE5
S1135780082D192D2A2D3B2D4C2D5D2D6E2D7F2D91
S1135790802F912F29513C4F4F4F5F4F6F4F7F4FB9
S11357A08F4F9F4FA22EB32EC42ED52EE62EF72E4A
S11357B0082F192F2A2D3B2D4C2D5D2D6E2D7F2D5D
S11357C0802F912F0E945611DC01CB0120E030E89C
S11357D04BEB55E4BC01CD010E948114DC01CB01EB
S11357E0BC01CD010E94A510A22EB32EC42ED52E2D
S11357F0E62EF72E082F192FD601C501BC01CD01C5
S11358000E945B1D0E94E94F882309F086CE0000A8
S113581081E08093A0211D8201C000008D818F5FF3
S11358208D838D818A3009F06DC180E00E947E599C
S11358300E948A590E9492590E944F1DDC01CB019B
S11358408C019D0140E050E0BA0163960FAF63976D
S113585064961FAF649765962FAF659766963FAFC2
S1135860669767964FAF679768965FAF6897699634
S11358706FAF69976A967FAF6A9763961FAD639718
S1135880AB961FAFAB9764962FAD6497AC962FAFD2
S1135890AC9765963FAD6597AD963FAFAD9766966D
S11358A04FAD6697AE964FAFAE9767965FAD67976D
S11358B0AF965FAFAF9768966FAD6897E0966FAF9E
S11358C0E09769967FAD6997E1967FAFE1976A9615
S11358D08FAD6A97E2968FAFE297AB962FADAB97F9
S11358E0AC963FADAC97AD964FADAD97AE965FAD70
S11358F0AE97AF966FADAF97E0967FADE097E19628
S11359008FADE197E2969FADE29702E00E94A2720A
S1135910A22EB32EC42ED52EE62EF72E082F192F25
S1135920AB96AFAEAB97AC96BFAEAC97AD96CFAEE1
S1135930AD97AE96DFAEAE97AF96EFAEAF97E0966B
S1135940FFAEE097E1960FAFE197E2961FAFE297C3
S1135950AB962FADAB97AC963FADAC97AD964FAD34
S1135960AD97AE965FADAE97AF966FADAF97E0963D
S11359707FADE097E1968FADE197E2969FADE29718
S113598005E00E94A272222E332E442E552E662E3E
S1135990772E882E992E222D332D442D552D662DAC
S11359A0772D882D992DAB96AFACAB97AC96BFAC49
S11359B0AC97AD96CFACAD97AE96DFACAE97AF9645
S11359C0EFACAF97E096FFACE097E1960FADE197AF
S11359D0E2961FADE2970E94BA72222E332E442E15
S11359E0552E662E772E882E992E222D332D442D5A
S11359F0552D662D772D882D992D6396AFAC639721
S1135A006496BFAC64976596CFAC65976696DFAC39
S1135A1066976796EFAC67976896FFAC6897699648
S1135A200FAD69976A961FAD6A970E94B172222ED4
S1135A30332E442E552E662E772E882E992E222D07
S1135A40332D442D552D662D772D882D992D03E06A
S1135A500E94A272A22EB32EC42ED52EE62EF72EAD
S1135A60082F192F2A2C3B2C4C2C5D2C6E2C7F2CB0
S1135A70802E912EA22CB32CC42CD52CE62CF72CE2
S1135A80082D192D2A2D3B2D4C2D5D2D6E2D7F2D8E
S1135A90802F912F29513C4F4F4F5F4F6F4F7F4FB6
S1135AA08F4F9F4FA22EB32EC42ED52EE62EF72E47
S1135AB0082F192F2A2D3B2D4C2D5D2D6E2D7F2D5A
S1135AC0802F912F0E945611DC01CB0120E030E899
S1135AD04BEB55E4BC01CD010E948114DC01CB01E8
S1135AE0BC01CD010E94A510A22EB32EC42ED52E2A
S1135AF0E62EF72E082F192FD601C501BC01CD01C2
S1135B000E945B1D98D0009709F087CE0E94685FC1
S1135B10DC01CB018093082090930920A0930A20F4
S1135B20B0930B20000080E098E00E948E6680E431
S1135B3098E00E948E6660E080E098E00E94921EE9
S1135B4060E080E498E00E94921E80E498E028E0FF
S1135B50FC01208380E891E020ECFC01208380E4B8
S1135B6098E029E8FC01238380E098E029E8FC011F
S1135B70238360E375E780E098E00E94B81E64E048
S1135B8080E098E00E94BC1D80E098E00E94E91D3E
S1135B90DC01CB018E839F83A887B98787ED9AE0C8
S1135BA029852F9328852F932F812F932E812F932F
S1135BB0292F2F938F93CE010A96292F2F938F93FA
S1135BC00E94B5740DB71EB7085F1F4FCDBFDEBF6F
S1135BD0CE010A9640E0BC0181E00E949E596FEF1D
S1135BE07FEFCB010E94D53D80E79FE10E94895F52
S1135BF065E070E080E090E00E949C1D8AE00E94D5
S1135C007E590E948A5980E0CF58DF4FCDBFDEBF56
S1135C10DF91CF911F910F91FF90EF90DF90CF9084
S1135C20BF90AF909F908F907F906F905F904F90B8
S1135C303F902F900895FF920F931F93CF93DF937C
S1135C40CDB7DEB7C359D109CDBFDEBF82E08093A3
S1135C50842119821A8281E199E08F8398878F8148
S1135C609885BC0182E00E94F3598091A021882389
S1135C7061F483E299E041E0BC0181E00E949E5915
S1135C8081E090E089839A83E1C00E94B652882F14
S1135C9090E089839A8389819A81009709F0D3C01F
S1135CA0CE01099660E80E942F1CCE0187579F4FB2
S1135CB02EE1FC0120839E0127573F4FAE01475F31
S1135CC05F4FCE01099660E00E944F5389839A8307
S1135CD00E941A5589819A81009709F0B6C087E716
S1135CE099E041E0BC0183E00E949E59CE010996EF
